:100000000C94BC080C94D9080C94D9080C94D90809
:100010000C94D9080C94D9080C94D9080C94D908DC
:100020000C94D9080C94D9080C94AF0F0C94D908EF
:100030000C94D9080C94F6080C94D9080C94D9089F
:100040000C94D9080C94D9080C94D9080C94D908AC
:100050000C94D9080000000000000000000000001F
:10006000000000000000000000001FCC000C000099
:1000700000000000000008003000600008003000B0
:1000800060000000022003FC1E20022003FC1E2052
:100090000220000000000E1811043FFF10840C78AD
:1000A000000000000F0010840F3800C0077818848B
:1000B0000078000000780F8410C411240E9800E42A
:1000C00000840008080068007000000000000000C4
:1000D0000000000000000000000007E018182004E5
:1000E00040020000000040022004181807E0000051
:1000F000000000000240024001800FF00180024039
:10010000024000000080008000800FF80080008026
:10011000008000000001000D000E00000000000043
:10012000000000000000008000800080008000804F
:10013000008000800000000C000C000000000000A7
:1001400000000000000000060018006001800600AA
:1001500018002000000007F0080810041004080828
:1001600007F000000000080408041FFC000400045D
:100170000000000000000E0C101410241044118424
:100180000E0C000000000C18100411041104128859
:100190000C700000000000E00320042408241FFC71
:1001A0000024000000001F9810841104110410881E
:1001B00010700000000007F008881104110418886E
:1001C0000070000000001C00100010FC13001C0058
:1001D0001000000000000E381144108410841144F7
:1001E0000E38000000000700088C104410440888F6
:1001F00007F00000000000000000030C030C0000EA
:1002000000000000000000000001010600000000E6
:1002100000000000000000800140022004100808D7
:1002200010040000022002200220022002200220EE
:100230000220000000001004080804100220014001
:100240000080000000000E001200100C106C1080E6
:100250000F00000003E00C1813E4142417C408284E
:1002600007D000000004003C03C41C40074000E429
:10027000001C000410041FFC1104110411040E885A
:100280000070000003E00C181004100410041008A3
:100290001C10000010041FFC1004100410040808B7
:1002A00007F0000010041FFC1104110417C410040F
:1002B0000818000010041FFC1104110017C01000E2
:1002C0000800000003E00C181004100410441C780F
:1002D0000040000010041FFC108400800080108487
:1002E0001FFC10040000100410041FFC1004100474
:1002F0000000000000030001100110011FFE1000AB
:100300001000000010041FFC110403801464181C6A
:100310001004000010041FFC10040004000400047A
:10032000000C000010041FFC1F0000FC1F001FFC3D
:100330001004000010041FFC0C04030000E010185F
:100340001FFC100007F0080810041004100408082F
:1003500007F0000010041FFC108410801080108033
:100360000F00000007F0081810241024101C080AC1
:1003700007F2000010041FFC1104110011C011301D
:100380000E0C000400000E1C110410841084104494
:100390001C3800001800100010041FFC100410008E
:1003A0001800000010001FF81004000400041004DE
:1003B0001FF8100010001E0011E0001C00701380D8
:1003C0001C0010001FC0103C00E01F0000E0103CAB
:1003D0001FC000001004180C163401C001C01634F0
:1003E000180C100410001C00130400FC13041C0063
:1003F000100000000804101C1064108413041C0476
:10040000101800000000000000007FFE40024002C3
:1004100040020000000030000C0003800060001C5F
:100420000003000000004002400240027FFE000086
:1004300000000000000000002000400040004000DC
:100440002000000000010001000100010001000186
:1004500000010001000040004000200000000000FA
:100460000000000000000098012401440144014400
:1004700000FC000410001FFC008801040104008837
:1004800000700000000000700088010401040104F5
:1004900000880000000000700088010401041108B9
:1004A0001FFC0004000000F8014401440144014421
:1004B00000C800000000010401040FFC1104110435
:1004C00011001800000000D601290129012901C9E5
:1004D0000106000010041FFC00840100010001045B
:1004E00000FC000400000104190419FC00040004CD
:1004F000000000000000000300010101190119FEC5
:100500000000000010041FFC0024004001B4010C96
:10051000010400000000100410041FFC000400048B
:1005200000000000010401FC0104010001FC0104C1
:10053000010000FC010401FC008401000100010431
:1005400000FC0004000000F801040104010401049F
:1005500000F80000010101FF00850104010400888A
:100560000070000000000070008801040104010513
:1005700001FF00010104010401FC008401040100E9
:1005800001800000000000CC01240124012401248A
:100590000198000000000100010007F801040104B7
:1005A00000000000010001F800040004000401083C
:1005B00001FC0004010001800170000C00100160CA
:1005C0000180010001F0010C003001C00030010C7D
:1005D00001F0010000000104018C00740170018C25
:1005E00001040000010101810171000E0018016089
:1005F0000180010000000184010C013401440184E8
:10060000010C0000000000000000000001003EFCA2
:10061000400240020000000000000000FFFF000058
:100620000000000000003FFE33E661E661E633E6CD
:100630003FFE000000001800240042004200240099
:100640001800000000000000000000000000000092
:10065000000000003F4000000000000000003000EB
:10066000400030004000000009000BC03D000BC0FE
:100670003D00090018C024407FE022403180000086
:10068000180024C01B000D803240018003801C40F4
:1006900027401C8007400040100060000000000060
:1006A000000000000000000000001F8020404020EB
:1006B0000000402020401F800000000009000600CC
:1006C0001F80060009000000040004003F800400B1
:1006D00004000000001000600000000000000000A6
:1006E00004000400040004000400000000000040B6
:1006F0000000000000000000002001C006003800DB
:10070000400000001F802040204020401F8000004B
:10071000000010403FC000400000000018C0214011
:1007200022402440184000001080204024402440F3
:100730001B80000002000D0011003FC001400000BE
:100740003C80244024402440238000001F8024401B
:1007500024403440038000003000200027C03800CF
:10076000200000001B802440244024401B80000007
:100770001C0022C0224022401F8000000000000018
:1007800008400000000000000000000004600000BD
:1007900000000000000004000A001100208040401A
:1007A000090009000900090009000000000040409C
:1007B000208011000A0004001800200023402400BB
:1007C000180000001F802040274029401F400000E3
:1007D000004007C039000F0001C0004020403FC06A
:1007E000244024401B8000001F80204020402040E7
:1007F0003080000020403FC0204020401F8000008B
:1008000020403FC024402E4030C0000020403FC068
:1008100024402E00300000000F00108020402240B5
:100820003380020020403FC0040004003FC020404D
:10083000204020403FC02040204000000060202099
:1008400020203FC02000200020403FC024400B005B
:1008500030C0204020403FC020400040004000C049
:100860003FC03C0003C03C003FC0000020403FC0F0
:100870000C4023003FC020001F802040204020402B
:100880001F80000020403FC02440240018000000CA
:100890001F802140214020E01FA0000020403FC0D9
:1008A0002440260019C0004018C0244024402240A3
:1008B00031800000300020403FC020403000000068
:1008C00020003F80004000403F80200020003E008C
:1008D00001C0070038002000380007C03C0007C0F6
:1008E00038000000204039C0060039C02040000018
:1008F0002000384007C0384020000000304021C0B0
:100900002640384020C00000000000007FE040206A
:1009100040200000000070000C0003800040000038
:100920000000402040207FE0000000000000200088
:100930004000200000000000001000100010001017
:100940000010001000000000400000000000000047
:10095000000002800540054003C0004020003FC069
:100960000440044003800000000003800440044071
:100970000640000000000380044024403FC00040C7
:1009800000000380054005400340000000000440D3
:100990001FC0244024402000000002E00550055004
:1009A0000650042020403FC00440040003C0004023
:1009B0000000044027C000400000000000100010AC
:1009C000041027E00000000020403FC00140070065
:1009D00004C00440204020403FC0004000400000D0
:1009E00007C0040007C0040003C00000044007C0A3
:1009F0000440040003C000400000038004400440A1
:100A000003800000041007F004500440038000003D
:100A1000000003800440045007F00010044007C0A9
:100A200002400400040000000000064005400540AC
:100A300004C00000000004001F80044000400000CB
:100A4000040007800040044007C000400400070085
:100A500004C0018006000400060001C0070001C0B8
:100A600006000000044006C0010006C0044000006B
:100A70000410071004E00180060004000000044098
:100A800005C00640044000000000000004007BE0B8
:100A900040200000000000000000FFF00000000007
:100AA000000040207BE00400000000000000000C7B
:100AB000200112C000000000000000000000000043
:100AC0003FFFFFFC3FFFFFFC3000000C3000000C3C
:100AD0003000000C3000000C3000000C3000000C26
:100AE0003000000C3000000C3FFFFFFC3FFFFFFC1C
:100AF00000000000000000000000000000000000F6
:100B000000000000000000000000000000000000E5
:100B100030000000300000003FFFFFFC3FFFFFFC03
:100B200000000000000000000000000000000000C5
:100B300000000000000000000000000000000000B5
:100B40003C01FFFC3C01FFFC3001800C3001800CBB
:100B50003001800C3001800C3001800C3001800CA1
:100B60003001800C3001800C3FFF800C3FFF800C77
:100B70000000000000000000000000000000000075
:100B80003800003C3800003C3001800C3001800C03
:100B90003001800C3001800C3001800C3001800C61
:100BA0003001800C3001800C3FFFFFFC3FFFFFFC59
:100BB0000000000000000000000000000000000035
:100BC0003FFF80003FFF80000001800000018000A7
:100BD0000001800000018000000180000001800011
:100BE00000018000000180003FFFFFFC3FFFFFFC91
:100BF00000000000000000000000000000000000F5
:100C00003FFF803C3FFF803C3001800C3001800C76
:100C10003001800C3001800C3001800C3001800CE0
:100C20003001800C3001800C3001FFFC3001FFFCF2
:100C300000000000000000000000000000000000B4
:100C40003FFFFFFC3FFFFFFC3001800C3001800CB8
:100C50003001800C3001800C3001800C3001800CA0
:100C60003001800C3001800C3C01FFFC3C01FFFC9A
:100C70000000000000000000000000000000000074
:100C80003C0000003C00000030000000300000008C
:100C90003000000030000000300000003000000094
:100CA00030000000300000003FFFFFFC3FFFFFFC72
:100CB0000000000000000000000000000000000034
:100CC0003FFFFFFC3FFFFFFC3001800C3001800C38
:100CD0003001800C3001800C3001800C3001800C20
:100CE0003001800C3001800C3FFFFFFC3FFFFFFC18
:100CF00000000000000000000000000000000000F4
:100D00003FFF803C3FFF803C3001800C3001800C75
:100D10003001800C3001800C3001800C3001800CDF
:100D20003001800C3001800C3FFFFFFC3FFFFFFCD7
:100D300000000000000000000000000000000000B3
:100D400000000000000000000000000000000000A3
:100D5000000000003C3C00003C3C00003C3C00002B
:100D60003C3C00000000000000000000000000000B
:100D70000000000000000000000000000000000073
:100D80000000000000000000000000000000000063
:100D90000000000000000000000000000000000053
:100DA0000000000000000000000000000000000043
:100DB0000000000000000000000000000000000033
:100DC0000000000000000000000000000000000023
:100DD0000000000000000000000000000000000013
:100DE0000000000000000000000000000000000003
:100DF00000000000000000000000000000000000F3
:100E000000000000000000000000000000000000E2
:100E100000000000000000000000000000000000D2
:100E200000000000000000000000000000000000C2
:100E300000000000000000000000000000000000B2
:100E400000000000000000000000000000000000A2
:100E50000000000000000000000000000000000092
:100E60000000000000000000000000000000000082
:100E70000000000000000000000000000000000072
:100E80000000000000000000000000000000000062
:100E900000000000000000000000FC000000000056
:100EA0000800000000000000000302000000000035
:100EB0000800000000000000000200000000000028
:100EC0000800000000000000000400BC3C03C8272C
:100ED0009F385CE000000000000400C242042828A3
:100EE00048446310000000000004008140040448EE
:100EF000088242100000000000043E8140040448C3
:100F00000882421000000000000402813C03C44734
:100F100088FE4210000000000004028102002280CE
:100F2000488042100000000000020281020022807E
:100F300048804210000000000003028242042108A1
:100F400048424210000000000000FCFC3C03C107C6
:100F5000873C4210000000000000008000000200FA
:100F600000000000000000000000008000000200FF
:100F700000000000000000000000008000000200EF
:100F80000000000000000000000000000000000061
:100F90000000000000000000000000000000000051
:100FA0000000000000000000000000000000000041
:100FB0000000000000000000000000000000000031
:100FC0000000000000000000000000000000000021
:100FD0000000000000000000000000000000000011
:100FE0000000000000000000000000000000000001
:100FF00000000000000000000000000000000000F1
:1010000000000000000000000000000000000000E0
:1010100000000000000000000000000000000000D0
:1010200000000000000000000000000000000000C0
:1010300000000000000000000000000000000000B0
:1010400000000000000000000000000000000000A0
:101050000000000000000000000000000000000090
:101060000000000000000000000000000000000080
:101070000000000000000000000000000000000070
:101080000000000000000000000000000000000060
:101090000000000000000000000000000000000050
:1010A0000000000000000000000000000000000040
:1010B0000000000000000000000000000000000030
:1010C0000000000000000000000000000000000020
:1010D0000000000000000000000000000000000010
:1010E0000000000000000000000000000000000000
:1010F00000000000000000000000000000000000F0
:1011000000000000000000000000000000000000DF
:1011100000000000000000000000000000000000CF
:1011200000000000000000000000000000000000BF
:1011300000000000000000000000000000000000AF
:10114000000000000000000000000000000000009F
:10115000000000000000000000000000000000008F
:10116000000000000000000000000000000000007F
:10117000000000000000000011241FBECFE5D8E0F1
:10118000DEBFCDBF10E0A0E6B0E0E4E9F5E202C0CA
:1011900005900D92A43AB107D9F726E0A4EAB0E091
:1011A00001C01D92A73CB207E1F70E94450F0C94C5
:1011B000C8120C94000090BD89B980E98AB986E80C
:1011C00080BD08959091270180912801981761F0C2
:1011D000809128018F5F80932801E0912801F0E041
:1011E000E75DFE4F8081089580E008951F920F9281
:1011F0000FB60F9211248F939F93EF93FF939CB19F
:101200009A3029F4809126018F5F80932601E09126
:101210002701EF5F80912801E81731F0E093270163
:10122000F0E0E75DFE4F9083FF91EF919F918F91EA
:101230000F900FBE0F901F90189528E030E090E8B7
:101240009498492F482311F0939A01C09398949A47
:10125000969521503109A1F70895959A96989598F9
:101260000E941D09959A0895959A969A95980E94BC
:101270001D09959A08958B9A8C9A949A8F9A979AA9
:101280008E9A8D9A8D9A08950E943B09979A8FEFB6
:1012900093EB0197F1F700C0000097988FEF93EB65
:1012A0000197F1F700C00000979A8EEA0E942D097D
:1012B00085ED0E942D0980E80E942D0988EA0E9490
:1012C0002D098FE30E942D0983ED0E942D0980E0F6
:1012D0000E942D0980E40E942D098DE80E942D09AD
:1012E00084E10E942D0980E20E942D0980E00E9485
:1012F0002D0981EA0E942D0988EC0E942D098AEDB2
:101300000E942D0982E10E942D0981E80E942D0989
:101310008FEC0E942D0989ED0E942D0981EF0E941A
:101320002D098BED0E942D0980E40E942D0984EA8D
:101330000E942D0986EA0E942D098FEA0C942D093E
:10134000FC0180E090E011920196811524E0920763
:10135000D1F708958038910530F577FD24C06034C9
:1013600071050CF5FB0153E0F595E7955A95E1F70A
:1013700067707727F695FE2FEE27F795E795E80F2C
:10138000F91FE20FF31F81E090E0062E01C0880FE5
:101390000A94EAF7442319F09081982B03C08095B2
:1013A00090819823908308959F92AF92BF92CF929D
:1013B000DF92EF92FF920F931F93CF93DF9380E022
:1013C0000E942D0980E10E942D0980E40E942D09D0
:1013D000F0EB9F2EE12CF12C892D0E942D0982E04B
:1013E0000E942D0980E10E942D09C0E0D0E0E9E2D1
:1013F000CE2EE2E0DE2ECE0CDF1C959A969A9598C2
:1014000000E010E05601AC0EBD1EF501E00FF11F2B
:1014100080810E941D090F5F1F4F00311105A9F740
:10142000959A6096C038D10541F780E8E80EF11C26
:10143000939488EB9812D0CFDF91CF911F910F91A9
:10144000FF90EF90DF90CF90BF90AF909F90089566
:101450002F923F924F925F926F927F928F929F92C4
:10146000AF92BF92CF92DF92EF92FF920F931F93B2
:10147000CF93DF9300D000D0CDB7DEB74A01522E14
:10148000402E30E0295F3F4FA3E035952795AA9580
:10149000E1F73C832B83A12CB12CC12CD12CE62F5E
:1014A000F0E0FA83E983282E312C33C086958695A7
:1014B0008695F501E80FF11DE80DF91DE491F0E0C6
:1014C000C8018770992720E830E002C0359527953C
:1014D0008A95E2F7E223F323EF2B41F0970141E0F5
:1014E000B301C801820D931D0E94AA090F5F1F4F0F
:1014F00006C000E010E069807A806C0C7D1C802FB3
:101500000515A0F23FEFC31AD30A8B819C81A80E68
:10151000B91EC41470F30F900F900F900F90DF91CD
:10152000CF911F910F91FF90EF90DF90CF90BF90E0
:10153000AF909F908F907F906F905F904F903F9073
:101540002F9008957F928F929F92AF92BF92CF92E9
:10155000DF92EF92FF920F931F93CF93DF93A82E0A
:10156000962E7901B62E00E010E0C42FD0E0E0976F
:1015700086E0CC0FDD1F8A95E1F7C62ED12CF8014D
:10158000EC0FFD1FE854F54F8490B8E07B2E7B0CE8
:10159000482D441F4427441F97016B2D70E08A2D6E
:1015A00090E00E94AA09880CB3944B2D50E04C198E
:1015B0005D094032510519F4A394B92C02C0B7104B
:1015C000E7CF0F5F1F4F00341105C9F6DF91CF91B0
:1015D0001F910F91FF90EF90DF90CF90BF90AF9051
:1015E0009F908F907F9008952F923F924F925F929D
:1015F0006F927F928F929F92AF92BF92CF92DF9223
:10160000EF92FF920F931F93CF93DF9300D01F921F
:10161000CDB7DEB7582E462E122F4052262E1B82F3
:101620001A82842F90E06C0124E0CC0CDD1C2A95FA
:10163000E1F7189F5001199FB00C1124862E912CB0
:10164000612E712C36C0EA81FB811C3051F4EA0D09
:10165000FB1DEC5BF94F09C03094822D885F8983B4
:1016600008C0EC0DFD1DEC5AFF4F34900023A1F390
:10167000F4CF970137FE02C041E001C040E0622D87
:1016800070E0852D90E00E94AA09330C2394822DEE
:1016900090E0881999098615970519F45394242C1C
:1016A00003C099812912E5CFEA81FB813196FB8342
:1016B000EA83FA81F11738F20F900F900F90DF91C3
:1016C000CF911F910F91FF90EF90DF90CF90BF903F
:1016D000AF909F908F907F906F905F904F903F90D2
:1016E0002F9008954F925F926F927F928F929F9268
:1016F000AF92BF92CF92DF92EF92FF920F931F9320
:10170000CF93DF93182F762E622E402E4701522E54
:10171000569430E8C32ED12CC518D108EA0140E414
:10172000A42EB12CA21AB10816C0E12FF0E0CE16FB
:10173000DF064CF4760C872D90E0A816B9060CF065
:1017400001C0712C10E07401042D262D672D812F0E
:101750000E94F40A150D49914111E7CFDF91CF9115
:101760001F910F91FF90EF90DF90CF90BF90AF90BF
:101770009F908F907F906F905F904F90089587B16A
:10178000887F846087B9369A3699FECF2091A4006D
:1017900084B195B1E22FF0E0EE0FFF1FEB55FF4F44
:1017A00091838083822F8F5F803219F08093A40011
:1017B00002C01092A400E5EAF0E040E050E0BA0177
:1017C00081919191480F591F611D711D80E0E53E87
:1017D000F807B1F785E076956795579547958A950F
:1017E000D1F7CA01089587B1887F866087B9369A94
:1017F0003699FECF2091E50084B195B1E22FF0E05B
:10180000EE0FFF1FEA51FF4F91838083822F8F5F7E
:10181000803219F08093E50002C01092E500E6EEF8
:10182000F0E040E050E0BA0181919191480F591FDA
:10183000611D711D81E0E632F807B1F7E5E07695AC
:10184000679557954795EA95D1F7CA0108952AE11A
:10185000AC01249FC001259F900D112464E670E027
:101860000E94D60F6F537109CB01089525E2289F7E
:10187000F001299FF00D1124CF0160E177E20E9471
:10188000D60F60932A0624E630E0CF01B9010E940A
:10189000D60FCB01B9010E94D60F80932906089577
:1018A000EF92FF920F93CF93DF9380919806813050
:1018B00011F580912A061F928F93C2E7D0E0DF9343
:1018C000CF9381EB96E09F938F930E94F30F8091CB
:1018D00029061F928F93DF93CF9383EC96E09F931B
:1018E0008F930E94F30F8DB79EB70C960FB6F894A6
:1018F0009EBF0FBE8DBF0E94F30B0E94360C89E283
:10190000E82E82E0F82E01E020E145E750E060E0BB
:1019100080E50E94720B20E141EB56E060E088E533
:101920000E94720B20E147E750E060E080E60E94F1
:10193000720B20E143EC56E060E088E60E94720BF7
:1019400020E149E750E060E088E70E94720BDF91F8
:10195000CF910F91FF90EF900895EF92FF920F9328
:101960008091C606813499F429E2E22E22E0F22E1B
:1019700001E020E140E356E060E080E00E94720B6D
:1019800020E14BE750E060E088E10E94720B80911B
:10199000C606863599F499E2E92E92E0F92E01E027
:1019A00020E140E356E060E080E00E94720B20E11D
:1019B00042E850E060E088E10E94720B0F91FF90D6
:1019C000EF900895EF92FF920F93809198068130E7
:1019D000D1F48091C1069091C2060E94270C9F937A
:1019E0008F9382E790E09F938F9380E690E09F93A0
:1019F0008F930E94F30F109298060F900F900F9004
:101A00000F900F900F900E94BF0B9093C20680938F
:101A1000C10639E2E32E32E0F32E01E020E140E698
:101A200050E060E188E50E94720B20E149E850E057
:101A300060E180E70E94720B0F91FF90EF90089594
:101A4000EF92FF920F9380916D0080FF0BC059E2DF
:101A5000E52E52E0F52E01E02CE04AE364E38CE051
:101A60000E94F40A49E2E42E42E0F42E01E02CE068
:101A70004091680064E380E00E94F40A2CE0409109
:101A8000690064E386E00E94F40A2CE040916A0059
:101A900064E382E10E94F40A2CE040916B0064E36D
:101AA00088E10E94F40A0F91FF90EF900895EF9261
:101AB000FF920F9369E2E62E62E0F62E01E02CE041
:101AC0004091B40664E384E20E94F40A2CE0409161
:101AD000B50664E38AE20E94F40A2CE04FE264E374
:101AE00080E30E94F40A2CE04091B60664E386E3AA
:101AF0000E94F40A2CE04091B70664E38CE30E9454
:101B0000F40A2CE04FE264E382E40E94F40A2CE041
:101B10004091B80664E388E40E94F40A2CE0409106
:101B2000B90664E38EE40E94F40A0F91FF90EF90EF
:101B30000895EF92FF920F9379E2E72E72E0F72E6D
:101B400001E02CE045EA56E064E280E00E94720B7E
:101B50002CE04CE850E064E28EE10E94720B0F91A1
:101B6000FF90EF9008950E94E208809333068C3234
:101B700059F090912B06E92FF0E0E859FF4F808350
:101B80009F5F90932B06EFCF10922B060E94E208E6
:101B9000809333068C3219F08093C606F7CF0E94EB
:101BA000E20880933306E0912B068C3249F0AE2F89
:101BB000B0E0A656B94F8C93EF5FE0932B06EFCFC2
:101BC000F0E0E656F94F108210922B060E94E208D0
:101BD000809333068C3219F080932C06F7CF0E9445
:101BE000E20880933306E0912B068C3249F0AE2F49
:101BF000B0E0AC5CB94F8C93EF5FE0932B06EFCF76
:101C0000F0E0EC5CF94F108210922B060E94E20883
:101C1000809333068C3219F080932D06F7CF0E9403
:101C2000E20880933306E0912B068C3249F0AE2F08
:101C3000B0E0AB55B94F8C93EF5FE0932B06EFCF3D
:101C4000F0E0EB55F94F108210922B060E94E2084B
:101C5000809333068C32D1F70E94E20880933306DA
:101C6000E0912B068C3249F0AE2FB0E0AC54B94F66
:101C70008C93EF5FE0932B06EFCFF0E0EC54F94F3D
:101C8000108210922B0608950E94E208809333067A
:101C90008C3229F4809199068F5F80939906809108
:101CA0009906863089F70E94E20880933306E09116
:101CB0002B068C3249F0AE2FB0E0A05DB94F8C936B
:101CC000EF5FE0932B06EFCFF0E0E05DF94F10827D
:101CD0001092990610922B060E94E2088093330618
:101CE0008C32D1F70E94E20880933306E0912B06F4
:101CF0008C3249F0AE2FB0E0A05CB94F8C93EF5F0F
:101D0000E0932B06EFCFF0E0E05CF94F10821092E9
:101D10002B0608950E94E208809333068C3229F442
:101D2000809199068F5F80939906809199068730FC
:101D300089F70E94E20880933306E0912B068C32EB
:101D400049F0AE2FB0E0A554B94F8C93EF5FE0930C
:101D50002B06EFCFF0E0E554F94F10821092990670
:101D600010922B06089580912601882309F446C01D
:101D70000E94E208809333068432A9F50E94E208AB
:101D800080933306E0912B068C3249F0AE2FB0E001
:101D9000A555B94F8C93EF5FE0932B06EFCFF0E0A2
:101DA000E555F94F108210922B0662E970E08BEA3C
:101DB00096E00E94EA0F009711F40E94B30D68E9C3
:101DC00070E08BEA96E00E94EA0F009711F40E94FF
:101DD000440E6EE970E08BEA96E00E94EA0F0097ED
:101DE00011F40E948A0E0E94E208809333068A3022
:101DF000D1F78091260181508093260108950E9499
:101E0000B30E29E232E04091680068E180E00E9470
:101E1000A20A29E232E04091690068E180E10E9473
:101E2000A20A29E232E04AE368E180E20E94A20AC3
:101E300029E232E040916A0068E180E30E94A20A50
:101E400029E232E040916B0068E180E40E94A20A3E
:101E500029E232E04AE368E180E50E94A20A29E231
:101E600032E040916C0068E180E60E94A20A29E21B
:101E700032E040916D0068E180E70E94A20A0E9472
:101E8000D40989E292E00C94A009379A86B1836064
:101E900086B987B1806C87B98A9A929A8FEF97E456
:101EA0000197F1F700C000009298A498A598AC9A09
:101EB000AD9A0E94440989E292E00E94A00983B78A
:101EC000886083BF83B7856083BF88E48CBF89B790
:101ED000826089BF8FE290E00E94DB0878949C9931
:101EE00009C09FEF2FE181E0915020408040E1F751
:101EF00000C000009C9B23C00E94B30EE9E2EE2EBE
:101F0000E2E0FE2E01E020E140E456E060E288E5F8
:101F10000E94720B20E14BEB56E060E388E50E94E3
:101F2000720B0E94AD0C0E94500C0E94E20C0E94A9
:101F3000570D0E94D409C7010E94A009D0CF0E946A
:101F4000FF0E9D9909C09FEF2FE181E09150204045
:101F50008040E1F700C000009D99F1CFCDCF1F92E6
:101F60000F920FB60F9211242F933F938F939F934D
:101F700080912E0690912F069C012F5F3F4F30934A
:101F80002F0620932E068C32914039F481E0809305
:101F9000980610922F0610922E069F918F913F91D6
:101FA0002F910F900FBE0F901F901895AA1BBB1B6F
:101FB00051E107C0AA1FBB1FA617B70710F0A61B49
:101FC000B70B881F991F5A95A9F780959095BC016A
:101FD000CD010895FB01DC018D9101908019011064
:101FE000D9F3990B0895AEE0B0E0E9EFFFE00C946F
:101FF0009F120D891E8986E08C831A8309838FEFD7
:102000009FE79E838D83CE014996AC016F89788DC1
:10201000CE0101960E941510EF81F885E00FF11FA7
:1020200010822E96E4E00C94BB12ACE0B0E0EBE141
:10203000F0E10C9491127C016B018A01FC01178282
:102040001682838181FFC6C188248394912C8C0ED3
:102050009D1EF7019381F60193FD859193FF819178
:102060006F01882309F4B2C1853239F493FD85915B
:1020700093FF81916F01853229F4B70190E00E94AE
:102080000712E7CF512C312C20E02032A8F48B32FC
:1020900061F028F4803251F0833271F40BC08D323C
:1020A00039F0803349F4216028C02260246025C0C3
:1020B000286023C0206121C027FD27C0382F30535E
:1020C0003A3078F426FF06C0FAE05F9E300D112406
:1020D000532E13C08AE0389E300D1124332E206217
:1020E0000CC08E3221F426FD71C1206406C08C36EE
:1020F00011F4206802C0883641F4F60193FD859101
:1021000093FF81916F018111C0CF982F9554933027
:1021100018F09052933028F40C5F1F4FFFE3F983BF
:102120000DC0833631F0833771F0833509F05EC01E
:1021300023C0F801808189830E5F1F4F442443949C
:10214000512C540115C03801F2E06F0E711CF801DA
:10215000A080B18026FF03C0652D70E002C06FEF44
:102160007FEFC5012C870E94FC112C0183012C8577
:102170006FE7262E222218C03801F2E06F0E711C84
:10218000F801A080B18026FF03C0652D70E002C079
:102190006FEF7FEFC5012C870E94F1112C012C8578
:1021A00050E8252E222A830123FC1CC006C0B7015B
:1021B00080E290E00E9407123A94832D90E0481646
:1021C0005906A8F30FC0F50127FC859127FE8191E0
:1021D0005F01B70190E00E94071231103A94F1E0DC
:1021E0004F1A51084114510471F7EDC0843611F0B3
:1021F000893641F5F80127FF07C06081718182812E
:1022000093810C5F1F4F08C060817181882777FD23
:102210008095982F0E5F1F4F4FE6B42EB22297FF86
:1022200009C090958095709561957F4F8F4F9F4F16
:10223000F0E8BF2A2AE030E0A4010E943312A82E61
:10224000A81843C0853731F43FEEB32EB2222AE0FE
:1022500030E024C099EFB92EB2228F36B9F020F4C5
:10226000883509F0B3C00DC0803721F0883709F0F8
:10227000ADC002C020E1B22AB4FE0BC084E0B82A8F
:1022800008C024FF09C0E6E0BE2A06C028E030E00E
:1022900005C020E130E002C020E132E0F801B7FEE5
:1022A00007C060817181828193810C5F1F4F06C0DE
:1022B0006081718180E090E00E5F1F4FA4010E9459
:1022C0003312A82EA818FFE7BF22B6FE0BC02B2D95
:1022D0002E7FA51450F4B4FE0AC0B2FC08C02B2D0A
:1022E0002E7E05C07A2C2B2D03C07A2C01C0752CB4
:1022F00024FF0DC0FE01EA0DF11D8081803311F431
:10230000297E09C022FF06C07394739404C0822FF3
:10231000867809F0739423FD14C020FF0FC05A2C57
:10232000731460F4530C5718732C08C0B70180E283
:1023300090E02C870E94071273942C857314B0F3DD
:1023400004C0731410F4371801C0312C24FF12C0DC
:10235000B70180E390E02C870E9407122C8522FFB2
:102360001EC021FF03C088E590E002C088E790E02E
:10237000B7010CC0822F867891F021FD02C080E267
:1023800001C08BE227FD8DE2B70190E00E940712A9
:1023900006C0B70180E390E00E9407125A94A5148A
:1023A000C0F3AA94F401EA0DF11DB701808190E019
:1023B0000E940712A110F5CF06C0B70180E290E09D
:1023C0000E9407123A943110F8CF43CEF7012681CC
:1023D000378102C02FEF3FEFC9012C96E2E10C9448
:1023E000AD12FC010590615070400110D8F7809546
:1023F00090958E0F9F1F0895FC01615070400190D1
:102400000110D8F7809590958E0F9F1F08950F9318
:102410001F93CF93DF938C01EB018B8181FD03C070
:102420000FEF1FEF1AC082FF0DC02E813F818C81FC
:102430009D812817390764F4E881F9810193F983B4
:10244000E88306C0E885F985802F0995892B41F737
:102450008E819F8101969F838E83C801DF91CF91EA
:102460001F910F910895FA01AA27283051F12031C8
:1024700081F1E8946F936E7F6E5F7F4F8F4F9F4F18
:10248000AF4FB1E03ED0B4E03CD0670F781F891F5A
:102490009A1FA11D680F791F8A1F911DA11D6A0F28
:1024A000711D811D911DA11D20D009F468943F91DB
:1024B0002AE0269F11243019305D3193DEF6CF01DA
:1024C0000895462F4770405D4193B3E00FD0C9F7A0
:1024D000F6CF462F4F70405D4A3318F0495D31FD0D
:1024E0004052419302D0A9F7EACFB4E0A695979560
:1024F000879577956795BA95C9F700976105710536
:1025000008959B01AC010A2E06945795479537957F
:102510002795BA95C9F7620F731F841F951FA01DD9
:1025200008952F923F924F925F926F927F928F9277
:102530009F92AF92BF92CF92DF92EF92FF920F9352
:102540001F93CF93DF93CDB7DEB7CA1BDB0B0FB65C
:10255000F894DEBF0FBECDBF09942A883988488819
:102560005F846E847D848C849B84AA84B984C884AF
:10257000DF80EE80FD800C811B81AA81B981CE0FA6
:10258000D11D0FB6F894DEBF0FBECDBFED0108958B
:04259000F894FFCFED
:102594002A2A0000000000003A3A3A3A3A3A3A004D
:1025A40000002564007D002C005600475053204F46
:1025B4004B006E6F20475053007E43006B6E6F7468
:1025C40073004750524D430047504747410047501E
:0425D4005654470012
:00000001FF
