:100000000C94FC080C9419090C9419090C94190906
:100010000C9419090C9419090C9419090C941909D8
:100020000C9419090C9419090C9421120C941909B7
:100030000C9419090C9436090C9419090C9419099B
:100040000C9419090C9419090C9419090C941909A8
:100050000C941909000000000000000000000000DE
:10006000000000000000000000001FCC000C000099
:1000700000000000000008003000600008003000B0
:1000800060000000022003FC1E20022003FC1E2052
:100090000220000000000E1811043FFF10840C78AD
:1000A000000000000F0010840F3800C0077818848B
:1000B0000078000000780F8410C411240E9800E42A
:1000C00000840008080068007000000000000000C4
:1000D0000000000000000000000007E018182004E5
:1000E00040020000000040022004181807E0000051
:1000F000000000000240024001800FF00180024039
:10010000024000000080008000800FF80080008026
:10011000008000000001000D000E00000000000043
:10012000000000000000008000800080008000804F
:10013000008000800000000C000C000000000000A7
:1001400000000000000000060018006001800600AA
:1001500018002000000007F0080810041004080828
:1001600007F000000000080408041FFC000400045D
:100170000000000000000E0C101410241044118424
:100180000E0C000000000C18100411041104128859
:100190000C700000000000E00320042408241FFC71
:1001A0000024000000001F9810841104110410881E
:1001B00010700000000007F008881104110418886E
:1001C0000070000000001C00100010FC13001C0058
:1001D0001000000000000E381144108410841144F7
:1001E0000E38000000000700088C104410440888F6
:1001F00007F00000000000000000030C030C0000EA
:1002000000000000000000000001010600000000E6
:1002100000000000000000800140022004100808D7
:1002200010040000022002200220022002200220EE
:100230000220000000001004080804100220014001
:100240000080000000000E001200100C106C1080E6
:100250000F00000003E00C1813E4142417C408284E
:1002600007D000000004003C03C41C40074000E429
:10027000001C000410041FFC1104110411040E885A
:100280000070000003E00C181004100410041008A3
:100290001C10000010041FFC1004100410040808B7
:1002A00007F0000010041FFC1104110417C410040F
:1002B0000818000010041FFC1104110017C01000E2
:1002C0000800000003E00C181004100410441C780F
:1002D0000040000010041FFC108400800080108487
:1002E0001FFC10040000100410041FFC1004100474
:1002F0000000000000030001100110011FFE1000AB
:100300001000000010041FFC110403801464181C6A
:100310001004000010041FFC10040004000400047A
:10032000000C000010041FFC1F0000FC1F001FFC3D
:100330001004000010041FFC0C04030000E010185F
:100340001FFC100007F0080810041004100408082F
:1003500007F0000010041FFC108410801080108033
:100360000F00000007F0081810241024101C080AC1
:1003700007F2000010041FFC1104110011C011301D
:100380000E0C000400000E1C110410841084104494
:100390001C3800001800100010041FFC100410008E
:1003A0001800000010001FF81004000400041004DE
:1003B0001FF8100010001E0011E0001C00701380D8
:1003C0001C0010001FC0103C00E01F0000E0103CAB
:1003D0001FC000001004180C163401C001C01634F0
:1003E000180C100410001C00130400FC13041C0063
:1003F000100000000804101C1064108413041C0476
:10040000101800000000000000007FFE40024002C3
:1004100040020000000030000C0003800060001C5F
:100420000003000000004002400240027FFE000086
:1004300000000000000000002000400040004000DC
:100440002000000000010001000100010001000186
:1004500000010001000040004000200000000000FA
:100460000000000000000098012401440144014400
:1004700000FC000410001FFC008801040104008837
:1004800000700000000000700088010401040104F5
:1004900000880000000000700088010401041108B9
:1004A0001FFC0004000000F8014401440144014421
:1004B00000C800000000010401040FFC1104110435
:1004C00011001800000000D601290129012901C9E5
:1004D0000106000010041FFC00840100010001045B
:1004E00000FC000400000104190419FC00040004CD
:1004F000000000000000000300010101190119FEC5
:100500000000000010041FFC0024004001B4010C96
:10051000010400000000100410041FFC000400048B
:1005200000000000010401FC0104010001FC0104C1
:10053000010000FC010401FC008401000100010431
:1005400000FC0004000000F801040104010401049F
:1005500000F80000010101FF00850104010400888A
:100560000070000000000070008801040104010513
:1005700001FF00010104010401FC008401040100E9
:1005800001800000000000CC01240124012401248A
:100590000198000000000100010007F801040104B7
:1005A00000000000010001F800040004000401083C
:1005B00001FC0004010001800170000C00100160CA
:1005C0000180010001F0010C003001C00030010C7D
:1005D00001F0010000000104018C00740170018C25
:1005E00001040000010101810171000E0018016089
:1005F0000180010000000184010C013401440184E8
:10060000010C0000000000000000000001003EFCA2
:10061000400240020000000000000000FFFF000058
:100620000000000000003FFE33E661E661E633E6CD
:100630003FFE000000001800240042004200240099
:100640001800000000000000000000000000000092
:10065000000000003F4000000000000000003000EB
:10066000400030004000000009000BC03D000BC0FE
:100670003D00090018C024407FE022403180000086
:10068000180024C01B000D803240018003801C40F4
:1006900027401C8007400040100060000000000060
:1006A000000000000000000000001F8020404020EB
:1006B0000000402020401F800000000009000600CC
:1006C0001F80060009000000040004003F800400B1
:1006D00004000000001000600000000000000000A6
:1006E00004000400040004000400000000000040B6
:1006F0000000000000000000002001C006003800DB
:10070000400000001F802040204020401F8000004B
:10071000000010403FC000400000000018C0214011
:1007200022402440184000001080204024402440F3
:100730001B80000002000D0011003FC001400000BE
:100740003C80244024402440238000001F8024401B
:1007500024403440038000003000200027C03800CF
:10076000200000001B802440244024401B80000007
:100770001C0022C0224022401F8000000000000018
:1007800008400000000000000000000004600000BD
:1007900000000000000004000A001100208040401A
:1007A000090009000900090009000000000040409C
:1007B000208011000A0004001800200023402400BB
:1007C000180000001F802040274029401F400000E3
:1007D000004007C039000F0001C0004020403FC06A
:1007E000244024401B8000001F80204020402040E7
:1007F0003080000020403FC0204020401F8000008B
:1008000020403FC024402E4030C0000020403FC068
:1008100024402E00300000000F00108020402240B5
:100820003380020020403FC0040004003FC020404D
:10083000204020403FC02040204000000060202099
:1008400020203FC02000200020403FC024400B005B
:1008500030C0204020403FC020400040004000C049
:100860003FC03C0003C03C003FC0000020403FC0F0
:100870000C4023003FC020001F802040204020402B
:100880001F80000020403FC02440240018000000CA
:100890001F802140214020E01FA0000020403FC0D9
:1008A0002440260019C0004018C0244024402240A3
:1008B00031800000300020403FC020403000000068
:1008C00020003F80004000403F80200020003E008C
:1008D00001C0070038002000380007C03C0007C0F6
:1008E00038000000204039C0060039C02040000018
:1008F0002000384007C0384020000000304021C0B0
:100900002640384020C00000000000007FE040206A
:1009100040200000000070000C0003800040000038
:100920000000402040207FE0000000000000200088
:100930004000200000000000001000100010001017
:100940000010001000000000400000000000000047
:10095000000002800540054003C0004020003FC069
:100960000440044003800000000003800440044071
:100970000640000000000380044024403FC00040C7
:1009800000000380054005400340000000000440D3
:100990001FC0244024402000000002E00550055004
:1009A0000650042020403FC00440040003C0004023
:1009B0000000044027C000400000000000100010AC
:1009C000041027E00000000020403FC00140070065
:1009D00004C00440204020403FC0004000400000D0
:1009E00007C0040007C0040003C00000044007C0A3
:1009F0000440040003C000400000038004400440A1
:100A000003800000041007F004500440038000003D
:100A1000000003800440045007F00010044007C0A9
:100A200002400400040000000000064005400540AC
:100A300004C00000000004001F80044000400000CB
:100A4000040007800040044007C000400400070085
:100A500004C0018006000400060001C0070001C0B8
:100A600006000000044006C0010006C0044000006B
:100A70000410071004E00180060004000000044098
:100A800005C00640044000000000000004007BE0B8
:100A900040200000000000000000FFF00000000007
:100AA000000040207BE00400000000000000000C7B
:100AB000200112C000000000000000000000000043
:100AC0000000000000000000000000000000000026
:100AD0000000000000000000000000000000000016
:100AE0000000001E0000001E0000001E0000001E8E
:100AF00000000000000000000000000000000000F6
:100B00003FFFFFFC3FFFFFFC3000000C3000000CFB
:100B10003000000C3000000C3000000C3000000CE5
:100B20003000000C3000000C3FFFFFFC3FFFFFFCDB
:100B300000000000000000000000000000000000B5
:100B40003FFFFFFC3FFFFFFC3000000C3000000CBB
:100B50003000000C3000000C3000000C3000000CA5
:100B60003000000C3000000C3FFFFFFC3FFFFFFC9B
:100B70000000000000000000000000000000000075
:100B80000000000000000000000000000000000065
:100B900030000000300000003FFFFFFC3FFFFFFC83
:100BA0000000000000000000000000000000000045
:100BB0000000000000000000000000000000000035
:100BC0003C01FFFC3C01FFFC3001800C3001800C3B
:100BD0003001800C3001800C3001800C3001800C21
:100BE0003001800C3001800C3FFF800C3FFF800CF7
:100BF00000000000000000000000000000000000F5
:100C00003800003C3800003C3001800C3001800C82
:100C10003001800C3001800C3001800C3001800CE0
:100C20003001800C3001800C3FFFFFFC3FFFFFFCD8
:100C300000000000000000000000000000000000B4
:100C40003FFF80003FFF8000000180000001800026
:100C50000001800000018000000180000001800090
:100C600000018000000180003FFFFFFC3FFFFFFC10
:100C70000000000000000000000000000000000074
:100C80003FFF803C3FFF803C3001800C3001800CF6
:100C90003001800C3001800C3001800C3001800C60
:100CA0003001800C3001800C3001FFFC3001FFFC72
:100CB0000000000000000000000000000000000034
:100CC0003FFFFFFC3FFFFFFC3001800C3001800C38
:100CD0003001800C3001800C3001800C3001800C20
:100CE0003001800C3001800C3C01FFFC3C01FFFC1A
:100CF00000000000000000000000000000000000F4
:100D00003C0000003C00000030000000300000000B
:100D10003000000030000000300000003000000013
:100D200030000000300000003FFFFFFC3FFFFFFCF1
:100D300000000000000000000000000000000000B3
:100D40003FFFFFFC3FFFFFFC3001800C3001800CB7
:100D50003001800C3001800C3001800C3001800C9F
:100D60003001800C3001800C3FFFFFFC3FFFFFFC97
:100D70000000000000000000000000000000000073
:100D80003FFF803C3FFF803C3001800C3001800CF5
:100D90003001800C3001800C3001800C3001800C5F
:100DA0003001800C3001800C3FFFFFFC3FFFFFFC57
:100DB0000000000000000000000000000000000033
:100DC0000000000000000000000000000000000023
:100DD000000000003C3C00003C3C00003C3C0000AB
:100DE0003C3C00000000000000000000000000008B
:100DF00000000000000000000000000000000000F3
:100E000000000000000000000000000000000000E2
:100E100000000000000000000000000000000000D2
:100E200000000000000000000000000000000000C2
:100E300000000000000000000000000000000000B2
:100E400000000000000000000000000000000000A2
:100E50000000000000000000000000000000000092
:100E60000000000000000000000000000000000082
:100E70000000000000000000000000000000000072
:100E80000000000000000000000000000000000062
:100E90000000000000000000000000000000000052
:100EA0000000000000000000000000000000000042
:100EB0000000000000000000000000000000000032
:100EC0000000000000000000000000000000000022
:100ED0000000000000000000000000000000000012
:100EE0000000000000000000000000000000000002
:100EF00000000000000000000000000000000000F2
:100F000000000000000000000000000000000000E1
:100F100000000000000000000000FC0000000000D5
:100F200008000000000000000003020000000000B4
:100F300008000000000000000002000000000000A7
:100F40000800000000000000000400BC3C03C827AB
:100F50009F385CE000000000000400C24204282822
:100F6000484463100000000000040081400404486D
:100F7000088242100000000000043E814004044842
:100F80000882421000000000000402813C03C447B4
:100F900088FE42100000000000040281020022804E
:100FA00048804210000000000002028102002280FE
:100FB0004880421000000000000302824204210821
:100FC00048424210000000000000FCFC3C03C10746
:100FD000873C42100000000000000080000002007A
:100FE000000000000000000000000080000002007F
:100FF000000000000000000000000080000002006F
:1010000000000000000000000000000000000000E0
:1010100000000000000000000000000000000000D0
:1010200000000000000000000000000000000000C0
:1010300000000000000000000000000000000000B0
:1010400000000000000000000000000000000000A0
:101050000000000000000000000000000000000090
:101060000000000000000000000000000000000080
:101070000000000000000000000000000000000070
:101080000000000000000000000000000000000060
:101090000000000000000000000000000000000050
:1010A0000000000000000000000000000000000040
:1010B0000000000000000000000000000000000030
:1010C0000000000000000000000000000000000020
:1010D0000000000000000000000000000000000010
:1010E0000000000000000000000000000000000000
:1010F00000000000000000000000000000000000F0
:1011000000000000000000000000000000000000DF
:1011100000000000000000000000000000000000CF
:1011200000000000000000000000000000000000BF
:1011300000000000000000000000000000000000AF
:10114000000000000000000000000000000000009F
:10115000000000000000000000000000000000008F
:10116000000000000000000000000000000000007F
:10117000000000000000000000000000000000006F
:10118000000000000000000000000000000000005F
:10119000000000000000000000000000000000004F
:1011A000000000000000000000000000000000003F
:1011B000000000000000000000000000000000002F
:1011C000000000000000000000000000000000001F
:1011D000000000000000000000000000000000000F
:1011E00000000000000000000000000000000000FF
:1011F000000000000000000011241FBECFE5D8E071
:10120000DEBFCDBF10E0A0E6B0E0E8E7FAE202C042
:1012100005900D92AE3DB107D9F727E0AEEDB0E0F5
:1012200001C01D92AF30B207E1F70E9456110C9435
:101230003A150C94000090BD89B980E98AB986E816
:1012400080BD08959091610180916201981761F0CD
:10125000809162018F5F80936201E0916201F0E012
:10126000ED59FE4F8081089580E008951F920F92FE
:101270000FB60F9211248F939F93EF93FF939CB11E
:101280009A3029F4809160018F5F80936001E09132
:101290006101EF5F80916201E81731F0E093610135
:1012A000F0E0ED59FE4F9083FF91EF919F918F9168
:1012B0000F900FBE0F901F90189528E030E090E837
:1012C0009498492F482311F0939A01C09398949AC7
:1012D000969521503109A1F70895959A9698959879
:1012E0000E945D09959A0895959A969A95980E94FC
:1012F0005D09959A08958B9A8C9A949A8F9A979AE9
:101300008E9A8D9A8D9A08950E947B09979A8FEFF5
:1013100093EB0197F1F700C0000097988FEF93EBE4
:101320000197F1F700C00000979A8EEA0E946D09BC
:1013300085ED0E946D0980E80E946D0988EA0E948F
:101340006D098FE30E946D0983ED0E946D0980E0B5
:101350000E946D0980E40E946D098DE80E946D096C
:1013600084E10E946D0980E20E946D0980E00E9484
:101370006D0981EA0E946D0988EC0E946D098AED71
:101380000E946D0982E10E946D0981E80E946D0949
:101390008FEC0E946D0989ED0E946D0981EF0E941A
:1013A0006D098BED0E946D0980E40E946D0984EA4D
:1013B0000E946D0986EA0E946D098FEA0C946D09FE
:1013C000FC0180E090E011920196811524E09207E3
:1013D000D1F708958038910530F577FD24C0603449
:1013E00071050CF5FB0153E0F595E7955A95E1F78A
:1013F00067707727F695FE2FEE27F795E795E80FAC
:10140000F91FE20FF31F81E090E0062E01C0880F64
:101410000A94EAF7442319F09081982B03C0809531
:1014200090819823908308959F92AF92BF92CF921C
:10143000DF92EF92FF920F931F93CF93DF9380E0A1
:101440000E946D0980E10E946D0980E40E946D098F
:10145000F0EB9F2EE12CF12C892D0E946D0982E08A
:101460000E946D0980E10E946D09C0E0D0E0E3E6D2
:10147000CE2EE2E0DE2ECE0CDF1C959A969A959841
:1014800000E010E05601AC0EBD1EF501E00FF11FAB
:1014900080810E945D090F5F1F4F00311105A9F780
:1014A000959A6096C038D10541F780E8E80EF11CA6
:1014B000939488EB9812D0CFDF91CF911F910F9129
:1014C000FF90EF90DF90CF90BF90AF909F900895E6
:1014D0002F923F924F925F926F927F928F929F9244
:1014E000AF92BF92CF92DF92EF92FF920F931F9332
:1014F000CF93DF9300D000D0CDB7DEB74A01522E94
:10150000402E30E0295F3F4FA3E035952795AA95FF
:10151000E1F73C832B83A12CB12CC12CD12CE62FDD
:10152000F0E0FA83E983282E312C33C08695869526
:101530008695F501E80FF11DE80DF91DE491F0E045
:10154000C8018770992720E830E002C035952795BB
:101550008A95E2F7E223F323EF2B41F0970141E074
:10156000B301C801820D931D0E94EA090F5F1F4F4E
:1015700006C000E010E069807A806C0C7D1C802F32
:101580000515A0F23FEFC31AD30A8B819C81A80EE8
:10159000B91EC41470F30F900F900F900F90DF914D
:1015A000CF911F910F91FF90EF90DF90CF90BF9060
:1015B000AF909F908F907F906F905F904F903F90F3
:1015C0002F9008957F928F929F92AF92BF92CF9269
:1015D000DF92EF92FF920F931F93CF93DF93A82E8A
:1015E000962E7901B62E00E010E0C42FD0E0AE9721
:1015F00086E0CC0FDD1F8A95E1F7C62ED12CF801CD
:10160000EC0FFD1FE854F54F8490B8E07B2E7B0C67
:10161000482D441F4427441F97016B2D70E08A2DED
:1016200090E00E94EA09880CB3944B2D50E04C19CD
:101630005D094032510519F4A394B92C02C0B710CA
:10164000E7CF0F5F1F4F00341105C9F6DF91CF912F
:101650001F910F91FF90EF90DF90CF90BF90AF90D0
:101660009F908F907F9008952F923F924F925F921C
:101670006F927F928F929F92AF92BF92CF92DF92A2
:10168000EF92FF920F931F93CF93DF9300D01F929F
:10169000CDB7DEB7582E462E122F4052262E1B8273
:1016A0001A82842F90E06C0124E0CC0CDD1C2A957A
:1016B000E1F7189F5001199FB00C1124862E912C30
:1016C000612E712C36C0EA81FB811C3051F4EA0D89
:1016D000FB1DEC5BF94F09C03094822D885F898334
:1016E00008C0EC0DFD1DEC5AFF4F34900023A1F310
:1016F000F4CF970137FE02C041E001C040E0622D07
:1017000070E0852D90E00E94EA09330C2394822D2D
:1017100090E0881999098615970519F45394242C9B
:1017200003C099812912E5CFEA81FB813196FB83C1
:10173000EA83FA81F11738F20F900F900F90DF9142
:10174000CF911F910F91FF90EF90DF90CF90BF90BE
:10175000AF909F908F907F906F905F904F903F9051
:101760002F9008954F925F926F927F928F929F92E7
:10177000AF92BF92CF92DF92EF92FF920F931F939F
:10178000CF93DF93182F762E622E402E4701522ED4
:10179000569430E8C32ED12CC518D108EA0140E494
:1017A000A42EB12CA21AB10816C0E12FF0E0CE167B
:1017B000DF064CF4760C872D90E0A816B9060CF0E5
:1017C00001C0712C10E07401042D262D672D812F8E
:1017D0000E94340B150D49914111E7CFDF91CF9154
:1017E0001F910F91FF90EF90DF90CF90BF90AF903F
:1017F0009F908F907F906F905F904F90089587B1EA
:10180000887F846087B9369A3699FECF2091DE00B2
:1018100084B195B1E22FF0E0EE0FFF1FE152FF4FD0
:1018200091838083822F8F5F803219F08093DE0056
:1018300002C01092DE00EFEDF0E040E050E0BA01AF
:1018400081919191480F591F611D711D81E0EF3108
:10185000F807B1F785E076956795579547958A958E
:10186000D1F7CA01089587B1887F866087B9369A13
:101870003699FECF20911F0184B195B1E22FF0E09F
:10188000EE0FFF1FE05EFE4F91838083822F8F5FFC
:10189000803219F080931F0102C010921F01E0E214
:1018A000F1E040E050E0BA0181919191480F591F59
:1018B000611D711D81E0E036F807B1F7E5E076952E
:1018C000679557954795EA95D1F7CA0108952AE19A
:1018D000AC01249FC001259F900D112464E670E0A7
:1018E0000E9448126F537109CB01089525E2289F89
:1018F000F001299FF00D1124CF0160E177E20E94F1
:1019000048126093640624E630E0CF01B9010E94DA
:101910004812CB01B9010E944812809363060895D2
:10192000EF92FF920F93CF93DF938091E006813087
:1019300021F5809164061F928F93C0E6D0E0DF937B
:10194000CF9389EF96E09F938F930E9465128091C9
:1019500063061F928F93DF93CF938BE097E09F9363
:101960008F930E9465121092E0068DB79EB70C9679
:101970000FB6F8949EBF0FBE8DBF0E94330C0E941D
:10198000760C83E6E82E82E0F82E01E020E143E6C3
:1019900050E060E080E50E94B20B20E149EF56E0A4
:1019A00060E088E50E94B20B20E145E650E060E08F
:1019B00080E60E94B20B20E14BE057E060E088E651
:1019C0000E94B20B20E147E650E060E088E70E9409
:1019D000B20BDF91CF910F91FF90EF900895EF92AE
:1019E000FF920F9380910E07813499F423E6E22E43
:1019F00022E0F22E01E020E14EE656E060E080E0D9
:101A00000E94B20B20E149E650E060E088E10E94CC
:101A1000B20B80910E07863599F493E6E92E92E099
:101A2000F92E01E020E14EE656E060E080E00E9401
:101A3000B20B20E140E750E060E088E10E94B20B89
:101A40000F91FF90EF900895EF92FF920F93809186
:101A5000890680FF0BC043E6E42E42E0F42E01E04D
:101A60002CE04AE364E38CE00E94340B33E6E32E7F
:101A700032E0F32E01E02CE04091840664E380E044
:101A80000E94340B2CE04091850664E386E00E94BE
:101A9000340B2CE04091860664E382E10E94340B13
:101AA0002CE04091870664E388E10E94340B0F919B
:101AB000FF90EF900895EF92FF920F9353E6E52E7B
:101AC00052E0F52E01E02CE04091FC0664E384E254
:101AD0000E94340B2CE04091FD0664E38AE20E94F0
:101AE000340B2CE04FE264E380E30E94340B2CE0E3
:101AF0004091FE0664E386E30E94340B2CE04091A3
:101B0000FF0664E38CE30E94340B2CE04FE264E3B5
:101B100082E40E94340B2CE04091000764E388E4E7
:101B20000E94340B2CE04091010764E38EE40E9494
:101B3000340B0F91FF90EF900895EF92FF920F9367
:101B400063E6E62E62E0F62E01E02CE04DEE56E074
:101B500064E280E00E94B20B2CE047E750E064E2D0
:101B60008EE10E94B20B0F91FF90EF9008950E94BA
:101B7000220980937106E09165068C3249F0AE2F00
:101B8000B0E0AC57B94F8C93EF5FE0936506EFCFB1
:101B9000F0E0EC57F94F1082109265060E9422097E
:101BA000809371068C3219F080930E07F7CF0E9454
:101BB000220980937106E09165068C3249F0AE2FC0
:101BC000B0E0AE51B94F8C93EF5FE0936506EFCF75
:101BD000F0E0EE51F94F1082109265060E94220942
:101BE000809371068C3219F080936606F7CF0E94BD
:101BF000220980937106E09165068C3249F0AE2F80
:101C0000B0E0AE58B94F8C93EF5FE0936506EFCF2D
:101C1000F0E0EE58F94F1082109265060E942209FA
:101C2000809371068C3219F080936706F7CF0E947B
:101C3000220980937106E09165068C3249F0AE2F3F
:101C4000B0E0A351B94F8C93EF5FE0936506EFCFFF
:101C5000F0E0E351F94F1082109265060E942209CC
:101C6000809371068C32D1F70E942209809371060D
:101C7000E09165068C3249F0AE2FB0E0A450B94F28
:101C80008C93EF5FE0936506EFCFF0E0E450F94FFF
:101C900010821092650608950E94220980937106B1
:101CA0008C3229F48091E1068F5F8093E106809168
:101CB000E106863089F70E94220980937106E0913F
:101CC00065068C3249F0AE2FB0E0A259B94F8C9323
:101CD000EF5FE0936506EFCFF0E0E259F94F108235
:101CE0001092E106109265060E9422098093710607
:101CF0008C32D1F70E942209809371068C3259F000
:101D000090916506E92FF0E0E258F94F80839F5FDC
:101D100090936506EFCF1092650608950E94220900
:101D2000809371068C3229F48091E1068F5F809355
:101D3000E1068091E106863089F70E9422098093AE
:101D400071068C3259F090916506E92FF0E0ED5F55
:101D5000F84F80839F5F90936506EFCF1092E10666
:101D600010926506089580916001882309F446C0A9
:101D70000E942209809371068432A9F50E942209EB
:101D800080937106E09165068C3249F0AE2FB0E089
:101D9000AD50B94F8C93EF5FE0936506EFCFF0E065
:101DA000ED50F94F1082109265066DE770E083EFF9
:101DB00096E00E945C12009711F40E94B70D63E850
:101DC00070E083EF96E00E945C12009711F40E948D
:101DD0004C0E69E870E083EF96E00E945C12009779
:101DE00011F40E948E0E0E942209809371068A309F
:101DF000D1F7809160018150809360010895EF9246
:101E0000FF920F930E94B30E0E94900C0E94EF0C61
:101E100023E632E04091FC0664E188E00E94E20A99
:101E200023E632E04091FD0664E188E10E94E20A87
:101E300073E6E72E72E0F72E01E020E14FE264E264
:101E400088E20E94340B97014091FE0664E180E332
:101E50000E94E20A97014091FF0664E180E40E943B
:101E6000E20A20E14FE264E280E50E94340B970130
:101E70004091000764E188E50E94E20A97014091E1
:101E8000010764E188E60E94E20A2CE04FE850E096
:101E900064E380E30E94B20B0E94140AC7010F9111
:101EA000FF90EF900C94E009EF92FF920F930E9445
:101EB000B30E0E94900C0E94EF0CE3E6EE2EE2E0DF
:101EC000FE2E01E020E14091E20664E184E10E94FF
:101ED000340B20E14091E30664E18CE10E94340B75
:101EE00020E144E950E064E184E20E94B20B20E189
:101EF0004091E40664E18CE20E94340B20E14091C1
:101F0000E50664E184E30E94340B20E147E950E0F8
:101F100064E18CE30E94B20B20E14091E70664E1AA
:101F200084E40E94340B20E14091E80664E18CE4F3
:101F30000E94340B20E14091E90664E184E50E94AF
:101F4000340B20E146E950E064E18CE50E94B20BDD
:101F500020E14091660664E18CE60E94340B20E1AA
:101F60004091730664E284E10E94340B20E14091C9
:101F7000740664E28CE10E94340B20E144E950E0F5
:101F800064E284E20E94B20B20E14091750664E2B3
:101F90008CE20E94340B20E14091760664E284E3F7
:101FA0000E94340B20E147E950E064E28CE30E9498
:101FB000B20B20E14091780664E284E40E94340B85
:101FC00020E14091790664E28CE40E94340B20E128
:101FD00040917A0664E284E50E94340B20E146E9F0
:101FE00050E064E28CE50E94B20B20E1409167066C
:101FF00064E28CE60E94340B2CE049E950E064E393
:1020000081E00E94B20B0E94140AC7010F91FF9059
:10201000EF900C94E009EF92FF920F930E94B30EA1
:102020000E94900C0E94EF0C23E632E040917E0665
:1020300064E184E00E94E20A23E632E040917F06F8
:1020400064E184E10E94E20A23E632E040918006E6
:1020500064E184E20E94E20A23E632E040918106D4
:1020600064E184E30E94E20A23E632E040918206C2
:1020700064E184E40E94E20AF3E6EF2EF2E0FF2E30
:1020800001E020E14FEA50E064E284E50E94B20BF7
:102090002CE045EB50E064E388E20E94B20B0E9422
:1020A000140AC7010F91FF90EF900C94E009EF9292
:1020B000FF920F930E94B30E0E94900C0E94EF0CAF
:1020C0008091E0068130D1F48091090790910A0750
:1020D0000E94670C9F938F9380E690E09F938F936D
:1020E00088E696E09F938F930E9465121092E00617
:1020F0000F900F900F900F900F900F900E94FF0B7A
:1021000090930A078093090723E632E0409168061E
:1021100064E180E30E94E20A23E632E0409169062E
:1021200064E180E40E94E20AA3E6EA2EA2E0FA2E2D
:1021300001E020E14EEB50E064E280E50E94B20B4A
:102140002CE041EC50E064E38FE10E94B20B0E946E
:10215000140AC7010F91FF90EF900C94E009EF92E1
:10216000FF920F930E94B30E0E94900C0E94EF0CFE
:1021700023E632E04091030764E188E00E94E20A2E
:1021800023E632E04091040764E188E10E94E20A1C
:1021900023E632E04091050764E188E20E94E20A0A
:1021A00023E632E04091060764E188E30E94E20AF8
:1021B00023E632E04091070764E188E40E94E20AE6
:1021C000B3E6EB2EB2E0FB2E01E020E14DEC50E057
:1021D00064E288E50E94B20B2CE042ED50E064E33B
:1021E00082E20E94B20B0E94140AC7010F91FF9075
:1021F000EF900C94E009EF92FF920F930E94B30EC0
:102200000E94900C0E94EF0C23E632E0409184067D
:1022100064E180E00E94E20A23E632E04091850614
:1022200064E180E10E94E20A23E632E04AE364E1ED
:1022300080E20E94E20A23E632E04091860664E1F1
:1022400080E30E94E20A23E632E04091870664E1DF
:1022500080E40E94E20A23E632E04AE364E180E59A
:102260000E94E20A23E632E04091880664E180E6BB
:102270000E94E20A23E632E04091890664E180E7A9
:102280000E94E20A03E6E02E02E0F02E01E02CE0DC
:1022900048ED50E064E380E30E94B20B0E94140A10
:1022A000C7010F91FF90EF900C94E009379A86B127
:1022B000836086B987B1806C87B98A9A929A8FEFCA
:1022C00097E40197F1F700C000009298A498A598B0
:1022D000AC9AAD9A0E94840983E692E00E94E009DC
:1022E00083B7886083BF83B7856083BF88E48CBF72
:1022F00089B7826089BF8FE290E00E941B097894C1
:102300000E94AF109D9909C09FEF2FE181E091508D
:1023100020408040E1F700C000009D9B79C09C995F
:1023200009C09FEF2FE181E0915020408040E1F70C
:1023300000C000009C99E4CF0E94540F9D9909C0F1
:102340009FEF2FE181E0915020408040E1F700C0F5
:1023500000009D9BD7CF9C9909C09FEF2FE181E0A2
:10236000915020408040E1F700C000009C99E4CFEC
:102370000E940B109D9908C09CEC2CEC81E09150C0
:1023800020408040E1F700C09D9BD8CF9C9908C0B9
:102390009CEC2CEC81E0915020408040E1F700C0A3
:1023A0009C99E6CF0E9457109D9908C09CEC2CEC9C
:1023B00081E0915020408040E1F700C09D9BDACF42
:1023C0009C9908C09CEC2CEC81E09150204080400E
:1023D000E1F700C09C99E6CF0E94FB109D9908C0D0
:1023E0009CEC2CEC81E0915020408040E1F700C053
:1023F0009D9BDACF9C9908C09CEC2CEC81E091501D
:1024000020408040E1F700C09C99E6CF0E94FF0E7B
:102410009D9908C09CEC2CEC81E0915020408040BC
:10242000E1F700C09D9BDACF9C9908C09CEC2CEC96
:1024300081E0915020408040E1F700C09C9B62CF3A
:10244000E5CF1F920F920FB60F9211242F933F9357
:102450008F939F9380916C0690916D069C012F5FE6
:102460003F4F30936D0620936C068C32914039F4C7
:1024700081E08093E00610926D0610926C069F91A9
:102480008F913F912F910F900FBE0F901F90189535
:10249000AA1BBB1B51E107C0AA1FBB1FA617B7078A
:1024A00010F0A61BB70B881F991F5A95A9F78095A6
:1024B0009095BC01CD010895FB01DC018D91019047
:1024C00080190110D9F3990B0895AEE0B0E0EBE666
:1024D000F2E10C9411150D891E8986E08C831A8314
:1024E00009838FEF9FE79E838D83CE014996AC01D0
:1024F0006F89788DCE0101960E948712EF81F88551
:10250000E00FF11F10822E96E4E00C942D15ACE044
:10251000B0E0EDE8F2E10C9403157C016B018A0157
:10252000FC0117821682838181FFC6C188248394AF
:10253000912C8C0E9D1EF7019381F60193FD8591E0
:1025400093FF81916F01882309F4B2C1853239F478
:1025500093FD859193FF81916F01853229F4B70135
:1025600090E00E947914E7CF512C312C20E02032EA
:10257000A8F48B3261F028F4803251F0833271F488
:102580000BC08D3239F0803349F4216028C02260BD
:10259000246025C0286023C0206121C027FD27C0FA
:1025A000382F30533A3078F426FF06C0FAE05F9EA9
:1025B000300D1124532E13C08AE0389E300D1124A3
:1025C000332E20620CC08E3221F426FD71C12064AE
:1025D00006C08C3611F4206802C0883641F4F6013A
:1025E00093FD859193FF81916F018111C0CF982F49
:1025F0009554933018F09052933028F40C5F1F4F8D
:10260000FFE3F9830DC0833631F0833771F08335F2
:1026100009F05EC023C0F801808189830E5F1F4FDF
:1026200044244394512C540115C03801F2E06F0E3C
:10263000711CF801A080B18026FF03C0652D70E0F9
:1026400002C06FEF7FEFC5012C870E946E142C0132
:1026500083012C856FE7262E222218C03801F2E074
:102660006F0E711CF801A080B18026FF03C0652D9C
:1026700070E002C06FEF7FEFC5012C870E946314EA
:102680002C012C8550E8252E222A830123FC1CC016
:1026900006C0B70180E290E00E9479143A94832D3D
:1026A00090E048165906A8F30FC0F50127FC859164
:1026B00027FE81915F01B70190E00E9479143110EB
:1026C0003A94F1E04F1A51084114510471F7EDC0EA
:1026D000843611F0893641F5F80127FF07C0608183
:1026E0007181828193810C5F1F4F08C0608171816D
:1026F000882777FD8095982F0E5F1F4F4FE6B42EE9
:10270000B22297FF09C090958095709561957F4F93
:102710008F4F9F4FF0E8BF2A2AE030E0A4010E94CB
:10272000A514A82EA81843C0853731F43FEEB32E68
:10273000B2222AE030E024C099EFB92EB2228F36BF
:10274000B9F020F4883509F0B3C00DC0803721F00E
:10275000883709F0ADC002C020E1B22AB4FE0BC038
:1027600084E0B82A08C024FF09C0E6E0BE2A06C0FB
:1027700028E030E005C020E130E002C020E132E096
:10278000F801B7FE07C060817181828193810C5F7F
:102790001F4F06C06081718180E090E00E5F1F4F87
:1027A000A4010E94A514A82EA818FFE7BF22B6FE18
:1027B0000BC02B2D2E7FA51450F4B4FE0AC0B2FC22
:1027C00008C02B2D2E7E05C07A2C2B2D03C07A2C11
:1027D00001C0752C24FF0DC0FE01EA0DF11D8081A2
:1027E000803311F4297E09C022FF06C073947394CC
:1027F00004C0822F867809F0739423FD14C020FF53
:102800000FC05A2C731460F4530C5718732C08C063
:10281000B70180E290E02C870E94791473942C8594
:102820007314B0F304C0731410F4371801C0312CC2
:1028300024FF12C0B70180E390E02C870E94791436
:102840002C8522FF1EC021FF03C088E590E002C056
:1028500088E790E0B7010CC0822F867891F021FDC7
:1028600002C080E201C08BE227FD8DE2B70190E05B
:102870000E94791406C0B70180E390E00E947914A9
:102880005A94A514C0F3AA94F401EA0DF11DB701FE
:10289000808190E00E947914A110F5CF06C0B701A5
:1028A00080E290E00E9479143A943110F8CF43CE40
:1028B000F7012681378102C02FEF3FEFC9012C9627
:1028C000E2E10C941F15FC0105906150704001106D
:1028D000D8F7809590958E0F9F1F0895FC01615049
:1028E000704001900110D8F7809590958E0F9F1F32
:1028F00008950F931F93CF93DF938C01EB018B818E
:1029000081FD03C00FEF1FEF1AC082FF0DC02E81A3
:102910003F818C819D812817390764F4E881F98112
:102920000193F983E88306C0E885F985802F09952E
:10293000892B41F78E819F8101969F838E83C801E9
:10294000DF91CF911F910F910895FA01AA272830A6
:1029500051F1203181F1E8946F936E7F6E5F7F4F6C
:102960008F4F9F4FAF4FB1E03ED0B4E03CD0670FE8
:10297000781F891F9A1FA11D680F791F8A1F911D3B
:10298000A11D6A0F711D811D911DA11D20D009F48B
:1029900068943F912AE0269F11243019305D3193CD
:1029A000DEF6CF010895462F4770405D4193B3E0B6
:1029B0000FD0C9F7F6CF462F4F70405D4A3318F05D
:1029C000495D31FD4052419302D0A9F7EACFB4E00E
:1029D000A6959795879577956795BA95C9F70097C6
:1029E0006105710508959B01AC010A2E0694579567
:1029F000479537952795BA95C9F7620F731F841FBE
:102A0000951FA01D08952F923F924F925F926F9253
:102A10007F928F929F92AF92BF92CF92DF92EF926E
:102A2000FF920F931F93CF93DF93CDB7DEB7CA1BEF
:102A3000DB0B0FB6F894DEBF0FBECDBF09942A881A
:102A4000398848885F846E847D848C849B84AA84C2
:102A5000B984C884DF80EE80FD800C811B81AA814F
:102A6000B981CE0FD11D0FB6F894DEBF0FBECDBF1A
:082A7000ED010895F894FFCF79
:102A78002564007D002C005600475053204F4B0022
:102A88006E6F20475053006B6E6F7473004750523F
:102A98004D4300475047474100475056544700446C
:102AA800415445007E0027270047454F4752415073
:102AB80047494320434F4F5244494E415445006DC6
:102AC800206E706D00414C544954554445007E4376
:102AD8000054454D5045524154555245004B4D2FD9
:0E2AE800480053504545440054494D450000F8
:00000001FF
