:100000000C946C090C9489090C9489090C94890945
:100010000C9489090C9489090C9489090C94890918
:100020000C9489090C9489090C9489090C94890908
:100030000C9489090C94050A0C94CB090C94890939
:100040000C9489090C9489090C9489090C948909E8
:100050000C9489090000000000000000000000006E
:10006000000000000000000000001FCC000C000099
:1000700000000000000008003000600008003000B0
:1000800060000000022003FC1E20022003FC1E2052
:100090000220000000000E1811043FFF10840C78AD
:1000A000000000000F0010840F3800C0077818848B
:1000B0000078000000780F8410C411240E9800E42A
:1000C00000840008080068007000000000000000C4
:1000D0000000000000000000000007E018182004E5
:1000E00040020000000040022004181807E0000051
:1000F000000000000240024001800FF00180024039
:10010000024000000080008000800FF80080008026
:10011000008000000001000D000E00000000000043
:10012000000000000000008000800080008000804F
:10013000008000800000000C000C000000000000A7
:1001400000000000000000060018006001800600AA
:1001500018002000000007F0080810041004080828
:1001600007F000000000080408041FFC000400045D
:100170000000000000000E0C101410241044118424
:100180000E0C000000000C18100411041104128859
:100190000C700000000000E00320042408241FFC71
:1001A0000024000000001F9810841104110410881E
:1001B00010700000000007F008881104110418886E
:1001C0000070000000001C00100010FC13001C0058
:1001D0001000000000000E381144108410841144F7
:1001E0000E38000000000700088C104410440888F6
:1001F00007F00000000000000000030C030C0000EA
:1002000000000000000000000001010600000000E6
:1002100000000000000000800140022004100808D7
:1002200010040000022002200220022002200220EE
:100230000220000000001004080804100220014001
:100240000080000000000E001200100C106C1080E6
:100250000F00000003E00C1813E4142417C408284E
:1002600007D000000004003C03C41C40074000E429
:10027000001C000410041FFC1104110411040E885A
:100280000070000003E00C181004100410041008A3
:100290001C10000010041FFC1004100410040808B7
:1002A00007F0000010041FFC1104110417C410040F
:1002B0000818000010041FFC1104110017C01000E2
:1002C0000800000003E00C181004100410441C780F
:1002D0000040000010041FFC108400800080108487
:1002E0001FFC10040000100410041FFC1004100474
:1002F0000000000000030001100110011FFE1000AB
:100300001000000010041FFC110403801464181C6A
:100310001004000010041FFC10040004000400047A
:10032000000C000010041FFC1F0000FC1F001FFC3D
:100330001004000010041FFC0C04030000E010185F
:100340001FFC100007F0080810041004100408082F
:1003500007F0000010041FFC108410801080108033
:100360000F00000007F0081810241024101C080AC1
:1003700007F2000010041FFC1104110011C011301D
:100380000E0C000400000E1C110410841084104494
:100390001C3800001800100010041FFC100410008E
:1003A0001800000010001FF81004000400041004DE
:1003B0001FF8100010001E0011E0001C00701380D8
:1003C0001C0010001FC0103C00E01F0000E0103CAB
:1003D0001FC000001004180C163401C001C01634F0
:1003E000180C100410001C00130400FC13041C0063
:1003F000100000000804101C1064108413041C0476
:10040000101800000000000000007FFE40024002C3
:1004100040020000000030000C0003800060001C5F
:100420000003000000004002400240027FFE000086
:1004300000000000000000002000400040004000DC
:100440002000000000010001000100010001000186
:1004500000010001000040004000200000000000FA
:100460000000000000000098012401440144014400
:1004700000FC000410001FFC008801040104008837
:1004800000700000000000700088010401040104F5
:1004900000880000000000700088010401041108B9
:1004A0001FFC0004000000F8014401440144014421
:1004B00000C800000000010401040FFC1104110435
:1004C00011001800000000D601290129012901C9E5
:1004D0000106000010041FFC00840100010001045B
:1004E00000FC000400000104190419FC00040004CD
:1004F000000000000000000300010101190119FEC5
:100500000000000010041FFC0024004001B4010C96
:10051000010400000000100410041FFC000400048B
:1005200000000000010401FC0104010001FC0104C1
:10053000010000FC010401FC008401000100010431
:1005400000FC0004000000F801040104010401049F
:1005500000F80000010101FF00850104010400888A
:100560000070000000000070008801040104010513
:1005700001FF00010104010401FC008401040100E9
:1005800001800000000000CC01240124012401248A
:100590000198000000000100010007F801040104B7
:1005A00000000000010001F800040004000401083C
:1005B00001FC0004010001800170000C00100160CA
:1005C0000180010001F0010C003001C00030010C7D
:1005D00001F0010000000104018C00740170018C25
:1005E00001040000010101810171000E0018016089
:1005F0000180010000000184010C013401440184E8
:10060000010C0000000000000000000001003EFCA2
:10061000400240020000000000000000FFFF000058
:10062000000000000000400240023EFC010000000B
:1006300000000000000060008000800040004000DA
:100640002000200000003FFC3FFC300C300C300C40
:10065000300C300C300C300C300C300C300C3FFCBB
:100660003FFC00000000000000000000000000004F
:100670000000300030003FFC3FFC000000000000A4
:1006800000000000000039FC39FC318C318C318CC9
:10069000318C318C318C318C318C318C318C3F8C64
:1006A0003F8C00000000381C381C318C318C318CA0
:1006B000318C318C318C318C318C318C318C3FFCD4
:1006C0003FFC000000003F803F80018001800180EE
:1006D00001800180018001800180018001803FFC58
:1006E0003FFC000000003F8C3F8C318C318C318C02
:1006F000318C318C318C318C318C318C318C31FCA2
:1007000031FC000000003FFC3FFC318C318C318C0F
:10071000318C318C318C318C318C318C318C31FC81
:1007200031FC00000000380038003000300030009C
:1007300030003000300030003000300030003FFC2E
:100740003FFC000000003FFC3FFC318C318C318CC1
:10075000318C318C318C318C318C318C318C3FFC33
:100760003FFC000000003F9C3F9C318C318C318C61
:10077000318C318C318C318C318C318C318C3FFC13
:100780003FFC00000000000000000000000000002E
:1007900000001830183000000000000000000000C9
:1007A0000000000000000000000000000000000049
:1007B000000000003F40000000000000000030008A
:1007C000400030004000000009000BC03D000BC09D
:1007D0003D00090018C024407FE022403180000025
:1007E000180024C01B000D803240018003801C4093
:1007F00027401C80074000401000600000000000FF
:10080000000000000000000000001F802040402089
:100810000000402020401F8000000000090006006A
:100820001F80060009000000040004003F8004004F
:100830000400000000100060000000000000000044
:100840000400040004000400040000000000004054
:100850000000000000000000002001C00600380079
:10086000400000001F802040204020401F800000EA
:10087000000010403FC000400000000018C02140B0
:100880002240244018400000108020402440244092
:100890001B80000002000D0011003FC0014000005D
:1008A0003C80244024402440238000001F802440BA
:1008B00024403440038000003000200027C038006E
:1008C000200000001B802440244024401B800000A6
:1008D0001C0022C0224022401F80000000000000B7
:1008E000084000000000000000000000046000005C
:1008F00000000000000004000A00110020804040B9
:10090000090009000900090009000000000040403A
:10091000208011000A000400180020002340240059
:10092000180000001F802040274029401F40000081
:10093000004007C039000F0001C0004020403FC008
:10094000244024401B8000001F8020402040204085
:100950003080000020403FC0204020401F80000029
:1009600020403FC024402E4030C0000020403FC007
:1009700024402E00300000000F0010802040224054
:100980003380020020403FC0040004003FC02040EC
:10099000204020403FC02040204000000060202038
:1009A00020203FC02000200020403FC024400B00FA
:1009B00030C0204020403FC020400040004000C0E8
:1009C0003FC03C0003C03C003FC0000020403FC08F
:1009D0000C4023003FC020001F80204020402040CA
:1009E0001F80000020403FC0244024001800000069
:1009F0001F802140214020E01FA0000020403FC078
:100A00002440260019C0004018C024402440224041
:100A100031800000300020403FC020403000000006
:100A200020003F80004000403F80200020003E002A
:100A300001C0070038002000380007C03C0007C094
:100A400038000000204039C0060039C020400000B6
:100A50002000384007C0384020000000304021C04E
:100A60002640384020C00000000000007FE0402009
:100A700040200000000070000C00038000400000D7
:100A80000000402040207FE0000000000000200027
:100A900040002000000000000010001000100010B6
:100AA00000100010000000004000000000000000E6
:100AB000000002800540054003C0004020003FC008
:100AC0000440044003800000000003800440044010
:100AD0000640000000000380044024403FC0004066
:100AE0000000038005400540034000000000044072
:100AF0001FC0244024402000000002E005500550A3
:100B00000650042020403FC00440040003C00040C1
:100B10000000044027C0004000000000001000104A
:100B2000041027E00000000020403FC00140070003
:100B300004C00440204020403FC00040004000006E
:100B400007C0040007C0040003C00000044007C041
:100B50000440040003C0004000000380044004403F
:100B600003800000041007F00450044003800000DC
:100B7000000003800440045007F00010044007C048
:100B8000024004000400000000000640054005404B
:100B900004C00000000004001F800440004000006A
:100BA000040007800040044007C000400400070024
:100BB00004C0018006000400060001C0070001C057
:100BC00006000000044006C0010006C0044000000A
:100BD0000410071004E00180060004000000044037
:100BE00005C00640044000000000000004007BE057
:100BF00040200000000000000000FFF000000000A6
:100C0000000040207BE00400000000004000800065
:100C10004000200020004000000000000000000014
:100C20003FFFFFFC3FFFFFFC3000000C3000000CDA
:100C30003000000C3000000C3000000C3000000CC4
:100C40003000000C3000000C3FFFFFFC3FFFFFFCBA
:100C50000000000000000000000000000000000094
:100C60000000000000000000000000000000000084
:100C700030000000300000003FFFFFFC3FFFFFFCA2
:100C80000000000000000000000000000000000064
:100C90000000000000000000000000000000000054
:100CA0003C01FFFC3C01FFFC3001800C3001800C5A
:100CB0003001800C3001800C3001800C3001800C40
:100CC0003001800C3001800C3FFF800C3FFF800C16
:100CD0000000000000000000000000000000000014
:100CE0003800003C3800003C3001800C3001800CA2
:100CF0003001800C3001800C3001800C3001800C00
:100D00003001800C3001800C3FFFFFFC3FFFFFFCF7
:100D100000000000000000000000000000000000D3
:100D20003FFF80003FFF8000000180000001800045
:100D300000018000000180000001800000018000AF
:100D400000018000000180003FFFFFFC3FFFFFFC2F
:100D50000000000000000000000000000000000093
:100D60003FFF803C3FFF803C3001800C3001800C15
:100D70003001800C3001800C3001800C3001800C7F
:100D80003001800C3001800C3001FFFC3001FFFC91
:100D90000000000000000000000000000000000053
:100DA0003FFFFFFC3FFFFFFC3001800C3001800C57
:100DB0003001800C3001800C3001800C3001800C3F
:100DC0003001800C3001800C3C01FFFC3C01FFFC39
:100DD0000000000000000000000000000000000013
:100DE0003C0000003C00000030000000300000002B
:100DF0003000000030000000300000003000000033
:100E000030000000300000003FFFFFFC3FFFFFFC10
:100E100000000000000000000000000000000000D2
:100E20003FFFFFFC3FFFFFFC3001800C3001800CD6
:100E30003001800C3001800C3001800C3001800CBE
:100E40003001800C3001800C3FFFFFFC3FFFFFFCB6
:100E50000000000000000000000000000000000092
:100E60003FFF803C3FFF803C3001800C3001800C14
:100E70003001800C3001800C3001800C3001800C7E
:100E80003001800C3001800C3FFFFFFC3FFFFFFC76
:100E90000000000000000000000000000000000052
:100EA0000000000000000000000000000FF00FF044
:100EB0000FF00FF00C0000300C0000300FF00FF0BE
:100EC0000FF00FF000000000000000000000000024
:100ED0000000000000000000000000000000000012
:100EE0000000000000000000000000000000000002
:100EF00000000000000000000000000000000000F2
:100F000000000000000000000000000000000000E1
:100F100000000000000000000000000000000000D1
:100F200000000000000000000000000000000000C1
:100F300000000000000000000000000000000000B1
:100F400000000000000000000000000000000000A1
:100F50000000000000000000000000000000000091
:100F60000000000000000000000000000000000081
:100F70000000000000000000000000000000000071
:100F80000000000000000000000000000000000061
:100F90000000000000000000000000000000000051
:100FA0000000000000000000000000000000000041
:100FB0000000000000000000000000000000000031
:100FC0000000000000000000000000000000000021
:100FD0000000000000000000000000000000000011
:100FE0000000000000000000000000000000000001
:100FF00000000000000000000000FC0000000000F5
:1010000008000000000000000003020000000000D3
:1010100008000000000000000002000000000000C6
:101020000800000000000000000400BC3C03C827CA
:101030009F385CE000000000000400C24204282841
:10104000484463100000000000040081400404488C
:10105000088242100000000000043E814004044861
:101060000882421000000000000402813C03C447D3
:1010700088FE42100000000000040281020022806D
:10108000488042100000000000020281020022801D
:101090004880421000000000000302824204210840
:1010A00048424210000000000000FCFC3C03C10765
:1010B000873C421000000000000000800000020099
:1010C000000000000000000000000080000002009E
:1010D000000000000000000000000080000002008E
:1010E0000000000000000000000000000000000000
:1010F00000000000000000000000000000000000F0
:1011000000000000000000000000000000000000DF
:1011100000000000000000000000000000000000CF
:1011200000000000000000000000000000000000BF
:1011300000000000000000000000000000000000AF
:10114000000000000000000000000000000000009F
:10115000000000000000000000000000000000008F
:10116000000000000000000000000000000000007F
:10117000000000000000000000000000000000006F
:10118000000000000000000000000000000000005F
:10119000000000000000000000000000000000004F
:1011A000000000000000000000000000000000003F
:1011B000000000000000000000000000000000002F
:1011C000000000000000000000000000000000001F
:1011D000000000000000000000000000000000000F
:1011E00000000000000000000000000000000000FF
:1011F00000000000000000000000000000000000EF
:1012000000000000000000000000000000000000DE
:1012100000000000000000000000000000000000CE
:1012200000000000000000000000000000000000BE
:1012300000000000000000000000000000000000AE
:10124000000000000000000000000000000000009E
:10125000000000000000000000000000000000008E
:10126000000000000000000000000000000000007E
:10127000000000000000000000000000000000006E
:10128000000000000000000000000000000000005E
:10129000000000000000000000000000000000004E
:1012A000000000000000000000000000000000003E
:1012B000000000000000000000000000000000002E
:1012C000000000000000000000000000000000001E
:1012D000000000000000000011241FBECFE5D8E090
:1012E000DEBFCDBF10E0A0E6B0E0ECEFFBE102C056
:1012F00005900D92A638B107D9F726E0A6E8B0E030
:1013000001C01D92A03FB207E1F70E94770D0C9437
:10131000FC0D0C94000090BD89B988E98AB986E873
:1013200080BD0895909186009F5F2091870092175D
:10133000E1F3E92FF0E0E757FF4F808390938600B9
:10134000559A0895CF93DF93EC0102C00E94920951
:1013500089918111FBCFDF91CF910895CF93DF93D6
:10136000CDB7DEB761970FB6F894DEBF0FBECDBF25
:10137000AB01BE016F5F7F4F0E94B70DCE0101969A
:101380000E94A20961960FB6F894DEBF0FBECDBFD2
:10139000DF91CF9108951F920F920FB60F921124F3
:1013A0008F939F93EF93FF93909186008091870096
:1013B000981769F0809187008F5F80938700E09194
:1013C0008700F0E0E757FF4F80818CB901C0559846
:1013D000FF91EF919F918F910F900FBE0F901F90F3
:1013E00018959091890180918A01981761F08091F8
:1013F0008A018F5F80938A01E0918A01F0E0E557CE
:10140000FE4F8081089580E008951F920F920FB6DD
:101410000F9211248F939F93EF93FF939CB19A3077
:1014200029F4809188008F5F80938800E091890182
:10143000EF5F80918A01E81302C0C09A06C0E09372
:101440008901F0E0E557FE4F9083FF91EF919F9166
:101450008F910F900FBE0F901F90189528E030E0ED
:1014600090E89398492F482311F0929A01C09298DE
:10147000939A969521503109A1F70895949A9598D9
:1014800094980E942E0A949A0895949A959A949802
:101490000E942E0A949A08958A9A8B9A939A8E9A09
:1014A000969A8D9A8C9A8C9A08950E944C0A969AD4
:1014B0008FE493EC0197F1F700C0000096988FE459
:1014C00093EC0197F1F700C00000969A8EEA0E9413
:1014D0003E0A85ED0E943E0A80E80E943E0A88EAA4
:1014E0000E943E0A8FE30E943E0A83ED0E943E0A5C
:1014F00080E00E943E0A80E40E943E0A8DE80E943D
:101500003E0A84E10E943E0A80E20E943E0A80E098
:101510000E943E0A81EA0E943E0A88EC0E943E0A2E
:101520008AED0E943E0A82E10E943E0A81E80E9402
:101530003E0A8FEC0E943E0A89ED0E943E0A81EF2E
:101540000E943E0A8BED0E943E0A80E40E943E0A01
:1015500084EA0E943E0A86EA0E943E0A8FEA0C94C0
:101560003E0AFC0180E090E011920196811524E092
:101570009207D1F708958038910530F577FD24C0A2
:10158000603471050CF5FB0153E0F595E7955A952C
:10159000E1F767707727F695FE2FEE27F795E79529
:1015A000E80FF91FE20FF31F81E090E0062E01C063
:1015B000880F0A94EAF7442319F09081982B03C00E
:1015C000809590819823908308959F92AF92BF92C7
:1015D000CF92DF92EF92FF920F931F93CF93DF93FF
:1015E00080E00E943E0A80E10E943E0A80E40E9460
:1015F0003E0AF0EB9F2EE12CF12C892D0E943E0A31
:1016000082E00E943E0A80E10E943E0AC0E0D0E0F3
:10161000EBE8CE2EE2E0DE2ECE0CDF1C949A959AFB
:10162000949800E010E05601AC0EBD1EF501E00FED
:10163000F11F80810E942E0A0F5F1F4F003111059C
:10164000A9F7949A6096C038D10541F780E8E80E72
:10165000F11C939488EB9812D0CFDF91CF911F911A
:101660000F91FF90EF90DF90CF90BF90AF909F9041
:1016700008952F923F924F925F926F927F928F9236
:101680009F92AF92BF92CF92DF92EF92FF920F9311
:101690001F93CF93DF9300D000D0CDB7DEB74A01C0
:1016A000522E402E30E0295F3F4FA3E0359527951D
:1016B000AA95E1F73C832B83A12CB12CC12CD12C12
:1016C000E62FF0E0FA83E983282E312C33C086958B
:1016D00086958695F501E80FF11DE80DF91DE49159
:1016E000F0E0C8018770992720E830E002C0359506
:1016F00027958A95E2F7E223F323EF2B41F0970138
:1017000041E0B301C801820D931D0E94BB0A0F5F27
:101710001F4F06C000E010E069807A806C0C7D1CD1
:10172000802F0515A0F23FEFC31AD30A8B819C814D
:10173000A80EB91EC41470F30F900F900F900F9065
:10174000DF91CF911F910F91FF90EF90DF90CF909D
:10175000BF90AF909F908F907F906F905F904F90D1
:101760003F902F9008957F928F929F92AF92BF9259
:10177000CF92DF92EF92FF920F931F93CF93DF935D
:10178000A82E962E7901B62E00E010E0C42FD0E0EE
:10179000E09786E0CC0FDD1F8A95E1F7C62ED12CAD
:1017A000F801EC0FFD1FE85EF34F8490B8E07B2E4C
:1017B0007B0C482D441F4427441F97016B2D70E07C
:1017C0008A2D90E00E94BB0A880CB3944B2D50E008
:1017D0004C195D094032510519F4A394B92C02C08B
:1017E000B710E7CF0F5F1F4F00341105C9F6DF9127
:1017F000CF911F910F91FF90EF90DF90CF90BF900E
:10180000AF909F908F907F9008952F923F924F922C
:101810005F926F927F928F929F92AF92BF92CF9280
:10182000DF92EF92FF920F931F93CF93DF9300D03D
:101830001F92CDB7DEB7582E462E122F4052262EBD
:101840001B821A82842F90E06C0124E0CC0CDD1CFA
:101850002A95E1F7189F5001199FB00C1124862E8C
:10186000912C612E712C36C0EA81FB811C3051F421
:10187000EA0DFB1DEC55F84F09C03094822D885FAE
:10188000898308C0EC0DFD1DEC5AFF4F34900023F6
:10189000A1F3F4CF970137FE02C041E001C040E060
:1018A000622D70E0852D90E00E94BB0A330C2394DA
:1018B000822D90E0881999098615970519F453949B
:1018C000242C03C099812912E5CFEA81FB8131964E
:1018D000FB83EA83FA81F11738F20F900F900F9093
:1018E000DF91CF911F910F91FF90EF90DF90CF90FC
:1018F000BF90AF909F908F907F906F905F904F9030
:101900003F902F9008954F925F926F927F928F92A7
:101910009F92AF92BF92CF92DF92EF92FF920F937E
:101920001F93CF93DF93182F762E622E402E470100
:10193000522E569430E8C32ED12CC518D108EA0196
:1019400040E4A42EB12CA21AB10816C0E12FF0E099
:10195000CE16DF064CF4760C872D90E0A816B9065B
:101960000CF001C0712C10E07401042D262D672DA0
:10197000812F0E94050C150D49914111E7CFDF9190
:10198000CF911F910F91FF90EF90DF90CF90BF907C
:10199000AF909F908F907F906F905F904F90089541
:1019A000EF92FF920F938091EF069BE8E92E92E071
:1019B000F92E01E02CE0813419F440E650E002C039
:1019C00041E750E060E080E00E94830C0F91FF90BF
:1019D000EF900895809188008823F1F00E94F1092A
:1019E00080938C0690918B068A3069F480918800F0
:1019F000815080938800E92FF0E0E956F94F10827A
:101A000010928B060895E92FF0E0E956F94F808394
:101A10009F5F90938B06E2CF089580918800882382
:101A200009F464C00E94F10980938C06843209F0A5
:101A30005DC00E94F10980938C06E0918B068C3288
:101A400049F0AE2FB0E0A751B94F8C93EF5FE09310
:101A50008B06EFCFF0E0E751F94F108210928B0622
:101A60006FE770E089EE96E00E94AE0D009701F5F9
:101A70000E94F10980938C06E0918B068C3249F02C
:101A8000AE2FB0E0A357B94F8C93EF5FE0938B0676
:101A9000EFCFF0E0E357F94F108210928B060E94CF
:101AA000F10980938C068C3219F08093EF06F7CF02
:101AB0000E94F10980938C0690918B068A3069F41C
:101AC00080918800815080938800E92FF0E0E956EA
:101AD000F94F108210928B060895E92FF0E0E95635
:101AE000F94F80839F5F90938B06E2CF089584B770
:101AF000806884BF84B7806884BFB99AB89A8EEB37
:101B000081BF0E94550A2FEF80E792E0215080406C
:101B10009040E1F700C000008BE892E00E94B10A1B
:101B20000E94E50A83E390E00E948B0978948BE899
:101B300092E00E94B10A0E940D0D0E94D00C2BE889
:101B4000E22E22E0F22E01E02CE04DE856E06AE1C0
:101B500088E20E94830C0E94E50AE9CFFB01DC01C8
:101B60008D91019080190110D9F3990B0895FB0113
:101B70009F01E8944230C4F04532B4F44A3029F46D
:101B800097FB1EF4909581959F4F642F77270E94B5
:101B9000E80D805D8A330CF0895D8193CB0100975D
:101BA000A1F716F45DE251931082C9010C94D80D8F
:101BB000DC01FC01672F71917723E1F7329704C0B4
:101BC0007C916D9370836291AE17BF07C8F308953F
:101BD000AA1BBB1B51E107C0AA1FBB1FA617B70753
:101BE00010F0A61BB70B881F991F5A95A9F780956F
:0C1BF0009095BC01CD010895F894FFCF42
:101BFC00436F6E6E656374656420746F2047505339
:101C0C00004E6F207369676E616C2047505300471C
:061C1C0050524D43000090
:00000001FF
